{
  "contractName": "ArbitrageBot",
  "abi": [
    {
      "inputs": [],
      "stateMutability": "nonpayable",
      "type": "constructor"
    },
    {
      "anonymous": false,
      "inputs": [
        {
          "indexed": true,
          "internalType": "address",
          "name": "previousOwner",
          "type": "address"
        },
        {
          "indexed": true,
          "internalType": "address",
          "name": "newOwner",
          "type": "address"
        }
      ],
      "name": "OwnershipTransferred",
      "type": "event"
    },
    {
      "inputs": [],
      "name": "MinPercentage",
      "outputs": [
        {
          "internalType": "uint256",
          "name": "",
          "type": "uint256"
        }
      ],
      "stateMutability": "view",
      "type": "function",
      "constant": true
    },
    {
      "inputs": [],
      "name": "Percentage_Divider",
      "outputs": [
        {
          "internalType": "uint256",
          "name": "",
          "type": "uint256"
        }
      ],
      "stateMutability": "view",
      "type": "function",
      "constant": true
    },
    {
      "inputs": [],
      "name": "owner",
      "outputs": [
        {
          "internalType": "address",
          "name": "",
          "type": "address"
        }
      ],
      "stateMutability": "view",
      "type": "function",
      "constant": true
    },
    {
      "inputs": [],
      "name": "renounceOwnership",
      "outputs": [],
      "stateMutability": "nonpayable",
      "type": "function"
    },
    {
      "inputs": [
        {
          "internalType": "address",
          "name": "newOwner",
          "type": "address"
        }
      ],
      "name": "transferOwnership",
      "outputs": [],
      "stateMutability": "nonpayable",
      "type": "function"
    },
    {
      "stateMutability": "payable",
      "type": "receive",
      "payable": true
    },
    {
      "inputs": [
        {
          "internalType": "uint256",
          "name": "Percentage",
          "type": "uint256"
        }
      ],
      "name": "changeMinPercentage",
      "outputs": [],
      "stateMutability": "nonpayable",
      "type": "function"
    },
    {
      "inputs": [
        {
          "internalType": "address",
          "name": "router0",
          "type": "address"
        },
        {
          "internalType": "address",
          "name": "router1",
          "type": "address"
        },
        {
          "internalType": "address",
          "name": "token0",
          "type": "address"
        },
        {
          "internalType": "address",
          "name": "token1",
          "type": "address"
        },
        {
          "internalType": "uint256",
          "name": "amount",
          "type": "uint256"
        }
      ],
      "name": "CrossExchangeArbitrage",
      "outputs": [],
      "stateMutability": "payable",
      "type": "function",
      "payable": true
    },
    {
      "inputs": [
        {
          "internalType": "address",
          "name": "router",
          "type": "address"
        },
        {
          "internalType": "address",
          "name": "token0",
          "type": "address"
        },
        {
          "internalType": "address",
          "name": "token1",
          "type": "address"
        },
        {
          "internalType": "address",
          "name": "token2",
          "type": "address"
        },
        {
          "internalType": "uint256",
          "name": "amount",
          "type": "uint256"
        }
      ],
      "name": "Trianglestrategy",
      "outputs": [],
      "stateMutability": "payable",
      "type": "function",
      "payable": true
    },
    {
      "inputs": [
        {
          "internalType": "address",
          "name": "_tokenAddress",
          "type": "address"
        }
      ],
      "name": "WithdrawTokens",
      "outputs": [],
      "stateMutability": "nonpayable",
      "type": "function"
    },
    {
      "inputs": [],
      "name": "WithdrawContractFunds",
      "outputs": [],
      "stateMutability": "nonpayable",
      "type": "function"
    }
  ],
  "bytecode": "0x608060405260146002556103e860035534801561001b57600080fd5b506100253361002a565b61007a565b600080546001600160a01b038381166001600160a01b0319831681178455604051919092169283917f8be0079c531659141344cd1fd0a4f28419497f9722a3daafe3b4186f6b6457e09190a35050565b611e39806100896000396000f3fe6080604052600436106100955760003560e01c8063715018a611610059578063715018a6146101285780637936cf351461013d5780638da5cb5b146101525780639131a05a1461017a578063f2fde38b1461019a57600080fd5b80632dfb00d7146100a157806345c4f5e8146100ca5780634d3c9470146100df578063574dfab2146100f25780636249706b1461011257600080fd5b3661009c57005b600080fd5b3480156100ad57600080fd5b506100b760035481565b6040519081526020015b60405180910390f35b6100dd6100d8366004611a88565b6101ba565b005b6100dd6100ed366004611a88565b610734565b3480156100fe57600080fd5b506100dd61010d366004611aec565b6111f0565b34801561011e57600080fd5b506100b760025481565b34801561013457600080fd5b506100dd6111fd565b34801561014957600080fd5b506100dd611211565b34801561015e57600080fd5b506000546040516001600160a01b0390911681526020016100c1565b34801561018657600080fd5b506100dd610195366004611b05565b611248565b3480156101a657600080fd5b506100dd6101b5366004611b05565b611344565b6101c26113ba565b6000856001600160a01b031663ad5c46486040518163ffffffff1660e01b815260040160206040518083038186803b1580156101fd57600080fd5b505afa158015610211573d6000803e3d6000fd5b505050506040513d601f19601f820116820180604052508101906102359190611b22565b9050806001600160a01b0316846001600160a01b031614156103a3576000341161027a5760405162461bcd60e51b815260040161027190611b3f565b60405180910390fd5b6000610287878534611414565b6040516370a0823160e01b81523060048201529091506001600160a01b0385169063095ea7b390889083906370a082319060240160206040518083038186803b1580156102d357600080fd5b505afa1580156102e7573d6000803e3d6000fd5b505050506040513d601f19601f8201168201806040525081019061030b9190611b85565b6040518363ffffffff1660e01b8152600401610328929190611b9e565b602060405180830381600087803b15801561034257600080fd5b505af1158015610356573d6000803e3d6000fd5b505050506040513d601f19601f8201168201806040525081019061037a9190611bb7565b5060006103888786846115f7565b905061039c81610397346117a2565b6117d1565b505061072c565b806001600160a01b0316836001600160a01b031614156104f957600082116103dd5760405162461bcd60e51b815260040161027190611b3f565b6040516370a0823160e01b81523060048201526001600160a01b0385169063095ea7b390889083906370a082319060240160206040518083038186803b15801561042657600080fd5b505afa15801561043a573d6000803e3d6000fd5b505050506040513d601f19601f8201168201806040525081019061045e9190611b85565b6040518363ffffffff1660e01b815260040161047b929190611b9e565b602060405180830381600087803b15801561049557600080fd5b505af11580156104a9573d6000803e3d6000fd5b505050506040513d601f19601f820116820180604052508101906104cd9190611bb7565b5060006104db8786856115f7565b905060006104ea878784611414565b905061039c81610397866117a2565b600082116105195760405162461bcd60e51b815260040161027190611b3f565b6040516370a0823160e01b81523060048201526001600160a01b0385169063095ea7b390889083906370a082319060240160206040518083038186803b15801561056257600080fd5b505afa158015610576573d6000803e3d6000fd5b505050506040513d601f19601f8201168201806040525081019061059a9190611b85565b6040518363ffffffff1660e01b81526004016105b7929190611b9e565b602060405180830381600087803b1580156105d157600080fd5b505af11580156105e5573d6000803e3d6000fd5b505050506040513d601f19601f820116820180604052508101906106099190611bb7565b50600061061887868686611834565b6040516370a0823160e01b81523060048201529091506001600160a01b0385169063095ea7b390889083906370a082319060240160206040518083038186803b15801561066457600080fd5b505afa158015610678573d6000803e3d6000fd5b505050506040513d601f19601f8201168201806040525081019061069c9190611b85565b6040518363ffffffff1660e01b81526004016106b9929190611b9e565b602060405180830381600087803b1580156106d357600080fd5b505af11580156106e7573d6000803e3d6000fd5b505050506040513d601f19601f8201168201806040525081019061070b9190611bb7565b50600061071a87868885611834565b905061072981610397866117a2565b50505b505050505050565b61073c6113ba565b6000856001600160a01b031663ad5c46486040518163ffffffff1660e01b815260040160206040518083038186803b15801561077757600080fd5b505afa15801561078b573d6000803e3d6000fd5b505050506040513d601f19601f820116820180604052508101906107af9190611b22565b9050806001600160a01b0316856001600160a01b03161415610a1257600034116107eb5760405162461bcd60e51b815260040161027190611b3f565b60006107f8878634611414565b6040516370a0823160e01b81523060048201529091506001600160a01b0386169063095ea7b390899083906370a082319060240160206040518083038186803b15801561084457600080fd5b505afa158015610858573d6000803e3d6000fd5b505050506040513d601f19601f8201168201806040525081019061087c9190611b85565b6040518363ffffffff1660e01b8152600401610899929190611b9e565b602060405180830381600087803b1580156108b357600080fd5b505af11580156108c7573d6000803e3d6000fd5b505050506040513d601f19601f820116820180604052508101906108eb9190611bb7565b5060006108fa88878785611834565b6040516370a0823160e01b81523060048201529091506001600160a01b0386169063095ea7b3908a9083906370a082319060240160206040518083038186803b15801561094657600080fd5b505afa15801561095a573d6000803e3d6000fd5b505050506040513d601f19601f8201168201806040525081019061097e9190611b85565b6040518363ffffffff1660e01b815260040161099b929190611b9e565b602060405180830381600087803b1580156109b557600080fd5b505af11580156109c9573d6000803e3d6000fd5b505050506040513d601f19601f820116820180604052508101906109ed9190611bb7565b5060006109fb8987846115f7565b9050610a0a81610397346117a2565b50505061072c565b806001600160a01b0316846001600160a01b03161415610c6a5760008211610a4c5760405162461bcd60e51b815260040161027190611b3f565b6040516370a0823160e01b81523060048201526001600160a01b0386169063095ea7b390889083906370a082319060240160206040518083038186803b158015610a9557600080fd5b505afa158015610aa9573d6000803e3d6000fd5b505050506040513d601f19601f82011682018060405250810190610acd9190611b85565b6040518363ffffffff1660e01b8152600401610aea929190611b9e565b602060405180830381600087803b158015610b0457600080fd5b505af1158015610b18573d6000803e3d6000fd5b505050506040513d601f19601f82011682018060405250810190610b3c9190611bb7565b506000610b4a8787856115f7565b90506000610b59888684611414565b6040516370a0823160e01b81523060048201529091506001600160a01b0386169063095ea7b3908a9083906370a082319060240160206040518083038186803b158015610ba557600080fd5b505afa158015610bb9573d6000803e3d6000fd5b505050506040513d601f19601f82011682018060405250810190610bdd9190611b85565b6040518363ffffffff1660e01b8152600401610bfa929190611b9e565b602060405180830381600087803b158015610c1457600080fd5b505af1158015610c28573d6000803e3d6000fd5b505050506040513d601f19601f82011682018060405250810190610c4c9190611bb7565b506000610c5b89878a85611834565b9050610a0a81610397876117a2565b806001600160a01b0316836001600160a01b03161415610eb35760008211610ca45760405162461bcd60e51b815260040161027190611b3f565b6040516370a0823160e01b81523060048201526001600160a01b0386169063095ea7b390889083906370a082319060240160206040518083038186803b158015610ced57600080fd5b505afa158015610d01573d6000803e3d6000fd5b505050506040513d601f19601f82011682018060405250810190610d259190611b85565b6040518363ffffffff1660e01b8152600401610d42929190611b9e565b602060405180830381600087803b158015610d5c57600080fd5b505af1158015610d70573d6000803e3d6000fd5b505050506040513d601f19601f82011682018060405250810190610d949190611bb7565b506000610da387878786611834565b6040516370a0823160e01b81523060048201529091506001600160a01b0386169063095ea7b390899083906370a082319060240160206040518083038186803b158015610def57600080fd5b505afa158015610e03573d6000803e3d6000fd5b505050506040513d601f19601f82011682018060405250810190610e279190611b85565b6040518363ffffffff1660e01b8152600401610e44929190611b9e565b602060405180830381600087803b158015610e5e57600080fd5b505af1158015610e72573d6000803e3d6000fd5b505050506040513d601f19601f82011682018060405250810190610e969190611bb7565b506000610ea48887846115f7565b90506000610c5b898984611414565b60008211610ed35760405162461bcd60e51b815260040161027190611b3f565b6040516370a0823160e01b81523060048201526001600160a01b0386169063095ea7b390889083906370a082319060240160206040518083038186803b158015610f1c57600080fd5b505afa158015610f30573d6000803e3d6000fd5b505050506040513d601f19601f82011682018060405250810190610f549190611b85565b6040518363ffffffff1660e01b8152600401610f71929190611b9e565b602060405180830381600087803b158015610f8b57600080fd5b505af1158015610f9f573d6000803e3d6000fd5b505050506040513d601f19601f82011682018060405250810190610fc39190611bb7565b506000610fd287878786611834565b6040516370a0823160e01b81523060048201529091506001600160a01b0386169063095ea7b390899083906370a082319060240160206040518083038186803b15801561101e57600080fd5b505afa158015611032573d6000803e3d6000fd5b505050506040513d601f19601f820116820180604052508101906110569190611b85565b6040518363ffffffff1660e01b8152600401611073929190611b9e565b602060405180830381600087803b15801561108d57600080fd5b505af11580156110a1573d6000803e3d6000fd5b505050506040513d601f19601f820116820180604052508101906110c59190611bb7565b5060006110d488878785611834565b6040516370a0823160e01b81523060048201529091506001600160a01b0386169063095ea7b3908a9083906370a082319060240160206040518083038186803b15801561112057600080fd5b505afa158015611134573d6000803e3d6000fd5b505050506040513d601f19601f820116820180604052508101906111589190611b85565b6040518363ffffffff1660e01b8152600401611175929190611b9e565b602060405180830381600087803b15801561118f57600080fd5b505af11580156111a3573d6000803e3d6000fd5b505050506040513d601f19601f820116820180604052508101906111c79190611bb7565b5060006111d689878a85611834565b90506111e581610397876117a2565b505050505050505050565b6111f86113ba565b600255565b6112056113ba565b61120f60006119a9565b565b6112196113ba565b60405133904780156108fc02916000818181858888f19350505050158015611245573d6000803e3d6000fd5b50565b6112506113ba565b6040516370a0823160e01b81523060048201526001600160a01b0382169063a9059cbb90339083906370a082319060240160206040518083038186803b15801561129957600080fd5b505afa1580156112ad573d6000803e3d6000fd5b505050506040513d601f19601f820116820180604052508101906112d19190611b85565b6040518363ffffffff1660e01b81526004016112ee929190611b9e565b602060405180830381600087803b15801561130857600080fd5b505af115801561131c573d6000803e3d6000fd5b505050506040513d601f19601f820116820180604052508101906113409190611bb7565b5050565b61134c6113ba565b6001600160a01b0381166113b15760405162461bcd60e51b815260206004820152602660248201527f4f776e61626c653a206e6577206f776e657220697320746865207a65726f206160448201526564647265737360d01b6064820152608401610271565b611245816119a9565b6000546001600160a01b0316331461120f5760405162461bcd60e51b815260206004820181905260248201527f4f776e61626c653a2063616c6c6572206973206e6f7420746865206f776e65726044820152606401610271565b604080516002808252606082018352600092602083019080368337505081516114449260019250602001906119f9565b50836001600160a01b031663ad5c46486040518163ffffffff1660e01b815260040160206040518083038186803b15801561147e57600080fd5b505afa158015611492573d6000803e3d6000fd5b505050506040513d601f19601f820116820180604052508101906114b69190611b22565b60016000815481106114ca576114ca611bef565b9060005260206000200160006101000a8154816001600160a01b0302191690836001600160a01b03160217905550826001808154811061150c5761150c611bef565b6000918252602082200180546001600160a01b0319166001600160a01b03938416179055908516637ff36ab584836001306115494261012c611c1b565b6040518663ffffffff1660e01b81526004016115689493929190611c7c565b6000604051808303818588803b15801561158157600080fd5b505af1158015611595573d6000803e3d6000fd5b50505050506040513d6000823e601f3d908101601f191682016040526115be9190810190611cb1565b9050600081600183516115d19190611d6f565b815181106115e1576115e1611bef565b6020026020010151905080925050509392505050565b604080516002808252606082018352600092602083019080368337505081516116279260019250602001906119f9565b5082600160008154811061163d5761163d611bef565b9060005260206000200160006101000a8154816001600160a01b0302191690836001600160a01b03160217905550836001600160a01b031663ad5c46486040518163ffffffff1660e01b815260040160206040518083038186803b1580156116a457600080fd5b505afa1580156116b8573d6000803e3d6000fd5b505050506040513d601f19601f820116820180604052508101906116dc9190611b22565b600180815481106116ef576116ef611bef565b6000918252602082200180546001600160a01b0319166001600160a01b039384161790559085166318cbafe5848360013061172c4261012c611c1b565b6040518663ffffffff1660e01b815260040161174c959493929190611d86565b600060405180830381600087803b15801561176657600080fd5b505af115801561177a573d6000803e3d6000fd5b505050506040513d6000823e601f3d908101601f191682016040526115be9190810190611cb1565b600080600354836002546117b69190611dc2565b6117c09190611de1565b6117ca9084611c1b565b9392505050565b808210156113405760405162461bcd60e51b815260206004820152602a60248201527f556e61626c6520746f204561726e2070726f6669742066726f6d2074686520746044820152693930b739b0b1ba34b7b760b11b6064820152608401610271565b604080516002808252606082018352600092602083019080368337505081516118649260019250602001906119f9565b5083600160008154811061187a5761187a611bef565b9060005260206000200160006101000a8154816001600160a01b0302191690836001600160a01b0316021790555082600180815481106118bc576118bc611bef565b6000918252602082200180546001600160a01b0319166001600160a01b039384161790559086166338ed173984836001306118f94261012c611c1b565b6040518663ffffffff1660e01b8152600401611919959493929190611d86565b600060405180830381600087803b15801561193357600080fd5b505af1158015611947573d6000803e3d6000fd5b505050506040513d6000823e601f3d908101601f1916820160405261196f9190810190611cb1565b9050600081600183516119829190611d6f565b8151811061199257611992611bef565b602002602001015190508092505050949350505050565b600080546001600160a01b038381166001600160a01b0319831681178455604051919092169283917f8be0079c531659141344cd1fd0a4f28419497f9722a3daafe3b4186f6b6457e09190a35050565b828054828255906000526020600020908101928215611a4e579160200282015b82811115611a4e57825182546001600160a01b0319166001600160a01b03909116178255602090920191600190910190611a19565b50611a5a929150611a5e565b5090565b5b80821115611a5a5760008155600101611a5f565b6001600160a01b038116811461124557600080fd5b600080600080600060a08688031215611aa057600080fd5b8535611aab81611a73565b94506020860135611abb81611a73565b93506040860135611acb81611a73565b92506060860135611adb81611a73565b949793965091946080013592915050565b600060208284031215611afe57600080fd5b5035919050565b600060208284031215611b1757600080fd5b81356117ca81611a73565b600060208284031215611b3457600080fd5b81516117ca81611a73565b60208082526026908201527f696e73756666696369656e742066756e647320666f7220746865207472616e7360408201526530b1ba34b7b760d11b606082015260800190565b600060208284031215611b9757600080fd5b5051919050565b6001600160a01b03929092168252602082015260400190565b600060208284031215611bc957600080fd5b815180151581146117ca57600080fd5b634e487b7160e01b600052604160045260246000fd5b634e487b7160e01b600052603260045260246000fd5b634e487b7160e01b600052601160045260246000fd5b60008219821115611c2e57611c2e611c05565b500190565b6000815480845260208085019450836000528060002060005b83811015611c715781546001600160a01b031687529582019560019182019101611c4c565b509495945050505050565b848152608060208201526000611c956080830186611c33565b6001600160a01b03949094166040830152506060015292915050565b60006020808385031215611cc457600080fd5b825167ffffffffffffffff80821115611cdc57600080fd5b818501915085601f830112611cf057600080fd5b815181811115611d0257611d02611bd9565b8060051b604051601f19603f83011681018181108582111715611d2757611d27611bd9565b604052918252848201925083810185019188831115611d4557600080fd5b938501935b82851015611d6357845184529385019392850192611d4a565b98975050505050505050565b600082821015611d8157611d81611c05565b500390565b85815284602082015260a060408201526000611da560a0830186611c33565b6001600160a01b0394909416606083015250608001529392505050565b6000816000190483118215151615611ddc57611ddc611c05565b500290565b600082611dfe57634e487b7160e01b600052601260045260246000fd5b50049056fea2646970667358221220de715cf6a7f45b43c9c6eada269bd33d90fd702df8d52d97b42922bb1c5eb1d264736f6c63430008090033",
  "immutableReferences": {},
  "source": "// SPDX-License-Identifier: MIT\npragma solidity ^0.8.0;\n\nimport \"./interfaces/IERC20.sol\";\nimport \"./interfaces/IUniswapV2Router02.sol\";\nimport \"./interfaces/IUniswapV2Factory.sol\";\nimport \"./interfaces/Ownable.sol\";\n\ncontract ArbitrageBot is Ownable {\n    constructor() {}\n\n    function Checktrade(uint256 a, uint256 b) internal pure {\n        require(a >= b, \"Unable to Earn profit from the transaction\");\n    }\n\n    address[] path;\n    uint256 public MinPercentage = 20;\n    uint256 public Percentage_Divider = 1000;\n\n    function changeMinPercentage(uint256 Percentage) public onlyOwner {\n        MinPercentage = Percentage;\n    }\n\n    function CalculatePercentage(uint256 amount)\n        internal\n        view\n        returns (uint256)\n    {\n        uint256 MinToken = amount +\n            ((MinPercentage * amount) / Percentage_Divider);\n        return MinToken;\n    }\n\n    function CrossExchangeArbitrage(\n        address router0,\n        address router1,\n        address token0,\n        address token1,\n        uint256 amount\n    ) public payable onlyOwner {\n        address WETH = IUniswapV2Router01(router0).WETH();\n        if (token0 == WETH) {\n            require(msg.value > 0, \"insufficient funds for the transaction\");\n            uint256 swapedAmount= swapETHtoToken(router0, token1, msg.value);\n\n            IERC20(token1).approve(\n                router1,\n                IERC20(token1).balanceOf(address(this))\n            );\n            uint256 tokenAcquired =swapTokenToEth(\n                router1,\n                token1,\n                swapedAmount\n            );\n            Checktrade(tokenAcquired, CalculatePercentage(msg.value));\n        } else if (token1 == WETH) {\n            require(amount > 0, \"insufficient funds for the transaction\");\n            IERC20(token0).approve(\n                router0,\n                IERC20(token0).balanceOf(address(this))\n            );\n            uint256 swapedAmount =swapTokenToEth(router0, token0, amount);\n\n            uint256 tokenAcquired = swapETHtoToken(router1, token0, swapedAmount);\n            Checktrade(tokenAcquired, CalculatePercentage(amount));\n        } else {\n            require(amount > 0, \"insufficient funds for the transaction\");\n            IERC20(token0).approve(\n                router0,\n                IERC20(token0).balanceOf(address(this))\n            );\n            uint256 swapedAmount= swapTokenForToken(router0, token0, token1, amount);\n            IERC20(token1).approve(\n                router1,\n                IERC20(token1).balanceOf(address(this))\n            );\n            uint256 tokenAcquired =swapTokenForToken(\n                router1,\n                token1,\n                token0,\n                swapedAmount\n            );\n            Checktrade(tokenAcquired, CalculatePercentage(amount));\n        }\n    }\n\n    function Trianglestrategy(\n        address router,\n        address token0,\n        address token1,\n        address token2,\n        uint256 amount\n    ) public payable onlyOwner {\n        address WETH = IUniswapV2Router01(router).WETH();\n        if (token0 == WETH) {\n            require(msg.value > 0, \"insufficient funds for the transaction\");\n            uint256 swapedAmount1 = swapETHtoToken(router, token1, msg.value);\n            IERC20(token1).approve(\n                router,\n                IERC20(token1).balanceOf(address(this))\n            );\n            uint256 swapedAmount2 =swapTokenForToken(\n                router,\n                token1,\n                token2,\n                swapedAmount1\n            );\n\n            IERC20(token2).approve(\n                router,\n                IERC20(token2).balanceOf(address(this))\n            );\n            uint tokenAcquired =swapTokenToEth(\n                router,\n                token2,\n                swapedAmount2\n            );\n            Checktrade(tokenAcquired, CalculatePercentage(msg.value));\n\n        } else if (token1 == WETH) {\n            require(amount > 0, \"insufficient funds for the transaction\");\n            IERC20(token0).approve(\n                router,\n                IERC20(token0).balanceOf(address(this))\n            );\n            uint256 swapedAmount1 =swapTokenToEth(router, token0, amount);\n            uint256 swapedAmount2 =swapETHtoToken(router, token2, swapedAmount1);\n            IERC20(token2).approve(\n                router,\n                IERC20(token2).balanceOf(address(this))\n            );\n            uint256 tokenAcquired =swapTokenForToken(\n                router,\n                token2,\n                token0,\n                swapedAmount2\n            );\n            Checktrade(tokenAcquired, CalculatePercentage(amount));\n        } else if (token2 == WETH) {\n            require(amount > 0, \"insufficient funds for the transaction\");\n            IERC20(token0).approve(\n                router,\n                IERC20(token0).balanceOf(address(this))\n            );\n            uint256 swapedAmount1 =swapTokenForToken(router, token0, token1, amount);\n            IERC20(token1).approve(\n                router,\n                IERC20(token1).balanceOf(address(this))\n            );\n            uint256 swapedAmount2= swapTokenToEth(\n                router,\n                token1,\n                swapedAmount1\n            );\n            uint256 tokenAcquired =swapETHtoToken(router, token0, swapedAmount2);\n            Checktrade(tokenAcquired, CalculatePercentage(amount));\n        } else {\n            require(amount > 0, \"insufficient funds for the transaction\");\n            IERC20(token0).approve(\n                router,\n                IERC20(token0).balanceOf(address(this))\n            );\n            uint256 swapedAmount1 =swapTokenForToken(router, token0, token1, amount);\n            IERC20(token1).approve(\n                router,\n                IERC20(token1).balanceOf(address(this))\n            );\n            uint256 swapedAmount2 =swapTokenForToken(\n                router,\n                token1,\n                token2,\n                swapedAmount1\n            );\n            IERC20(token2).approve(\n                router,\n                IERC20(token2).balanceOf(address(this))\n            );\n            uint256 tokenAcquired =swapTokenForToken(\n                router,\n                token2,\n                token0,\n                swapedAmount2\n            );\n            Checktrade(tokenAcquired, CalculatePercentage(amount));\n        }\n    }\n\n    function swapTokenForToken(\n        address router,\n        address tokenA,\n        address tokenB,\n        uint256 amount\n    ) internal returns(uint256) {\n        path = new address[](2);\n        path[0] = tokenA;\n        path[1] = tokenB;\n\n        uint[] memory amounts =IUniswapV2Router01(router).swapExactTokensForTokens(\n            amount,\n            0,\n            path,\n            address(this),\n            block.timestamp + 300 seconds\n        );\n        uint256 recivedamount = amounts[amounts.length -1];\n        return recivedamount;\n    }\n\n    function swapETHtoToken(\n        address router,\n        address token,\n        uint256 amount\n    ) internal returns(uint256) {\n        path = new address[](2);\n        path[0] = IUniswapV2Router01(router).WETH();\n        path[1] = token;\n\n        uint[] memory amounts =IUniswapV2Router01(router).swapExactETHForTokens{value: amount}(\n            0,\n            path,\n            address(this),\n            block.timestamp + 300 seconds\n        );\n        uint256 recivedamount = amounts[amounts.length -1];\n        return recivedamount;\n    }\n\n    function swapTokenToEth(\n        address router,\n        address token,\n        uint256 amount\n    ) internal returns(uint256) {\n        path = new address[](2);\n        path[0] = token;\n        path[1] = IUniswapV2Router01(router).WETH();\n\n        uint[] memory amounts =IUniswapV2Router01(router).swapExactTokensForETH(\n            amount,\n            0,\n            path,\n            address(this),\n            block.timestamp + 300 seconds\n        );\n        uint256 recivedamount = amounts[amounts.length -1];\n        return recivedamount;\n    }\n    function WithdrawTokens(address _tokenAddress) external onlyOwner {\n        IERC20(_tokenAddress).transfer(msg.sender, IERC20(_tokenAddress).balanceOf(address(this)));\n    }\n\n    function WithdrawContractFunds() external onlyOwner {\n        payable(msg.sender).transfer(address(this).balance);\n    }\n\n    receive() external payable {}\n}",
  "sourcePath": "D:\\SimpleBot\\contracts\\ArbittrageBOT.sol",
  "compiler": {
    "name": "solc",
    "version": "0.8.9+commit.e5eed63a.Emscripten.clang"
  },
  "schemaVersion": "3.4.11",
  "updatedAt": "2023-01-09T15:59:00.297Z",
  "networkType": "ethereum",
  "devdoc": {
    "kind": "dev",
    "methods": {
      "owner()": {
        "details": "Returns the address of the current owner."
      },
      "renounceOwnership()": {
        "details": "Leaves the contract without owner. It will not be possible to call `onlyOwner` functions anymore. Can only be called by the current owner. NOTE: Renouncing ownership will leave the contract without an owner, thereby removing any functionality that is only available to the owner."
      },
      "transferOwnership(address)": {
        "details": "Transfers ownership of the contract to a new account (`newOwner`). Can only be called by the current owner."
      }
    },
    "version": 1
  },
  "userdoc": {
    "kind": "user",
    "methods": {},
    "version": 1
  }
}